:100000000C94C7000C94EF000C94EF000C94EF00DC
:100010000C94EF000C94EF000C94EF000C94EF00A4
:100020000C94EF000C94EF000C9438090C94A70981
:100030000C94EF000C94EF000C94EF000C94EF0084
:100040000C94EF000C94EF000C94EF000C94EF0074
:100050000C94EF000C94EF000C94EF000C94EE085D
:100060000C94EF000C94FF0B0C94D90B0C94EF0044
:100070000C94EF000C94EF000C94EF000C94EF0044
:100080000C94EF000C94EF000C94EF000C94EF0034
:100090000C94310C0C94EF000C94EF000C94EF00D6
:1000A0000C94EF000C94EF000C94EF00080B00028E
:1000B0000202000009040000010202000005240001
:1000C0001001052401010104240206052406000193
:1000D0000705810310004009040100020A00000026
:1000E00007050202400000070583024000000403E8
:1000F000090412010002EF02014041233680000191
:100100000102030141726475696E6F204C4C43001B
:1001100041726475696E6F204C656F6E6172646FB9
:100120000000000000250028002B002E00310004F4
:10013000040404040304050202020204030202028E
:100140000206060606060604040202020404040867
:1001500002011040804010204080408008020401CD
:10016000804020100201108010204040200000003C
:100170000200090F0000030401000C000000000051
:10018000000000000000000000000000500D1124DD
:100190001FBECFEFDAE0DEBFCDBF11E0A0E0B1E0DF
:1001A000E4E8F3E202C005900D92A836B107D9F752
:1001B00023E0A8E6B1E001C01D92A535B207E1F742
:1001C00010E0C7ECD0E004C02197FE010E94BA11F4
:1001D000C63CD107C9F70E949C0D0C94C0110C9429
:1001E0000000FC018091FC01882311F13FB7F894D5
:1001F00082E08093E9002091F200822F90E01816AF
:10020000190614F481E090E0882339F0289844E638
:100210004093FB014091F1004083222339F020916B
:10022000F200211103C02BE62093E8003FBF0895A0
:100230008FEF9FEF08952FB7F89483E08093E90044
:100240009091E800892F807295FF04C09091F20090
:1002500080E4891B2FBF08958091F30181110DC0A7
:1002600082E08093EF0184E08093F0011092F2012C
:100270001092F10181E08093F3018FEE91E00895F7
:10028000282F30E0F901E359FE4F9491F901E25B28
:10029000FE4F8491215D3E4FF9012491222309F400
:1002A00030C09923E9F091509F30D0F4E92FF0E06D
:1002B000E45AFE4F0C94BA118A018E016B0182013F
:1002C0008601700170017001910197019B019F01EE
:1002D000A5017001A901909180009F779093800003
:1002E000E22FF0E0EE0FFF1FEF5DFE4FA591B491FE
:1002F0009FB7F894EC91611132C080958E238C9356
:100300009FBF0895909180009F7DE8CF90918000DD
:10031000977FE4CF94B59F7794BDE2CF94B59F7D4E
:10032000FBCF909190009F7790939000D9CF9091C0
:1003300090009F7DF9CF90919000977FF5CF90919D
:10034000C0009F779093C000CBCF9091C0009F7D5D
:10035000F9CF9091C200977F9093C200C1CF8E2BAE
:10036000CECF3FB7F8948091EB019091EC01A09132
:10037000ED01B091EE0126B5A89B05C02F3F19F005
:100380000196A11DB11D3FBFBA2FA92F982F882715
:10039000BC01CD01620F711D811D911D42E0660FF0
:1003A000771F881F991F4A95D1F708958F929F92C2
:1003B000AF92BF92CF92DF92EF92FF924B015C011E
:1003C0000E94B1016B017C010E94B1016C197D0991
:1003D0008E099F09683E734081059105A8F321E0CD
:1003E000821A9108A108B10888EEC80E83E0D81ED1
:1003F000E11CF11C81149104A104B10429F7FF90C0
:10040000EF90DF90CF90BF90AF909F908F90089526
:10041000089508954091CE015091CF012091CC01D3
:100420003091CD0142175307B4F49091E8009570D4
:10043000E1F39091E80092FD19C08093F100809162
:10044000CE019091CF0101968F739927892B19F4D2
:100450008EEF8093E8008091CE019091CF010196BC
:100460009093CF018093CE0181E0089580E00895BC
:10047000EF92FF920F931F93CF93DF93F82E192FD4
:10048000E62E042F81E0860F880F0E940A0283E087
:100490000E940A02CF2DD12FEC0EFD2EF11CCE159D
:1004A000DF05B9F007FF13C0FE0184910E940A0224
:1004B000182F80E00E940A02812321968111EFCF3C
:1004C000DF91CF911F910F91FF90EF900895888158
:1004D000EDCF81E0F5CFDF92EF92FF920F931F9364
:1004E000CF93DF93D82E8A01EB017B01E40EF51E3A
:1004F000CE15DF0559F0D7FE12C0FE0184910E948F
:100500000A0221968111F4CF0FEF1FEFC801DF918E
:10051000CF911F910F91FF90EF90DF900895888108
:10052000EECF0F931F93CF93DF931F92CDB7DEB71C
:1005300082E0898342E450E06CEA70E080E80E9447
:100540006B020E942C01DC0112960D911C91011589
:10055000110589F0D801ED91FC910280F381E02D25
:10056000BE016F5F7F4FC801099597FD04C0F80178
:1005700000851185ECCF89810F90DF91CF911F917C
:100580000F910895615030F02091F100FC0120831B
:100590000196F8CF289884E68093FB010895AF92E6
:1005A000BF92CF92DF92EF92FF920F931F93CF9360
:1005B000DF936C017B018B01040F151FEB015E01C2
:1005C000AE18BF08C017D10759F06991D601ED9157
:1005D000FC910190F081E02DC6010995892B79F7F6
:1005E000C501DF91CF911F910F91FF90EF90DF90A8
:1005F000CF90BF90AF900895FC01538D448D252F6F
:1006000030E0842F90E0821B930B541710F0CF96AC
:10061000089501970895FC01918D828D981761F0DE
:10062000A28DAE0FBF2FB11D5D968C91928D9F5FF5
:100630009F73928F90E008958FEF9FEF0895FC01D4
:10064000918D828D981731F0828DE80FF11D858D87
:1006500090E008958FEF9FEF0895FC01918D228D1A
:10066000892F90E0805C9F4F821B91098F7399279F
:1006700008958DE492E00E942D0321E0892B09F476
:1006800020E0822F089580E090E0892B29F00E94DD
:10069000390381110C9400000895FC01A48DA80F6A
:1006A000B92FB11DA35ABF4F2C91848D90E00196B4
:1006B0008F739927848FA689B7892C93A089B189D4
:1006C0008C9182748C93938D848D981306C00288CC
:1006D000F389E02D80818F7D80830895EF92FF92D2
:1006E0000F931F93CF93DF93EC0181E0888F9B8D55
:1006F0008C8D981319C0E889F989808185FF14C011
:100700009FB7F894EE89FF896083E889F989808131
:10071000827480839FBF81E090E0DF91CF911F9131
:100720000F91FF90EF900895F62E0B8D10E00F5F64
:100730001F4F0F731127E02E8C8D8E110CC00FB63A
:1007400007FCFACFE889F989808185FFF5CFCE01D2
:100750000E944D03F1CFEB8DEC0FFD2FF11DE35AFD
:10076000FF4FF0829FB7F8940B8FEA89FB89808155
:100770008062CFCFCF93DF93EC01888D8823B9F0CF
:10078000AA89BB89E889F9898C9185FD03C080819C
:1007900086FD0DC00FB607FCF7CF8C9185FFF2CF19
:1007A000808185FFEDCFCE010E944D03E9CFDF911F
:1007B000CF9108958F929F92AF92BF92CF92DF9286
:1007C000EF92FF920F931F93CF93DF936C017B0106
:1007D0008A0180910B01882309F45CC08091FC019F
:1007E000882309F457C08091D20180FF05C0809111
:1007F000E00082608093E000E801B12C8AEFA82E2F
:1008000093E0892E2AE3922E209711F4BB20D9F190
:100810000E941B0181110AC0AA94AA20D9F161E0AB
:1008200070E080E090E00E94D601EECF8C171D06AC
:1008300011F00CF08C2F9FB7F8948092E900209172
:10084000E80025FD02C09FBFDFCF282F30E0C21B8C
:10085000D30BF701815020F041914093F100FACF82
:10086000E20EF31EBB2021F09092E800B12CEBCFFA
:100870008091E80085FDE7CF9092E800BB24B39417
:10088000209709F3F3CF5D9884E68093D101101689
:1008900011063CF081E090E0F6019383828310E042
:1008A00000E0C801DF91CF911F910F91FF90EF9071
:1008B000DF90CF90BF90AF909F908F900895CF938F
:1008C000DF931F92CDB7DEB76983DC01ED91FC9118
:1008D0000280F381E02D41E050E0BE016F5F7F4F69
:1008E00009950F90DF91CF91089583E08093E900FF
:1008F0008091F200882319F08AE38093E80008953C
:100900000E941B0190E00895CF93DF931F92CDB713
:10091000DEB7FC018485958597FD08C02FEF3FEF7A
:10092000358724870F90DF91CF910895CE010196EE
:100930000E94F100019719F4898190E0F3CF8FEFC5
:100940009FEFF0CF0F931F93CF93DF931F92CDB7FD
:10095000DEB78C01FC018485958597FF0BC0CE0125
:1009600001960E94F100019771F4898190E0F801ED
:1009700095878487F801848595850F90DF91CF91C5
:100980001F910F9108958FEF9FEFF1CFFC018485A8
:10099000958597FD0BC09FB7F89482E08093E9009E
:1009A0008091F2009FBF90E0019608959FB7F89460
:1009B00082E08093E9008091F2009FBF90E008956B
:1009C0002091A901260F3327331F21323105ECF482
:1009D00020912302FC0190E080E0243069F082E065
:1009E0000895A091A9012191AC0147575E4FA40F32
:1009F000B52FB11D2C930196861798F38091A9010C
:100A0000680F6093A90180E0089581E00895109235
:100A1000230281E0809322021092FD0161E082E0D6
:100A20000E94400161E083E00E944001E9EBF0E0B8
:100A300080818E7F808380818D7F808388E4809316
:100A4000B80085E48093BC000895CF93DF9391E0D4
:100A5000909388018823B9F0C091B800D091BA0072
:100A60008091BC008A7B8093BC0060E082E00E94A1
:100A7000400160E083E00E9440010E940705D0939E
:100A8000BA00C093B800DF91CF9108958F929F92E2
:100A9000AF92BF92CF92DF92EF92FF920F931F938C
:100AA000CF93DF93D0914C02D13208F0D7C0182FEA
:100AB000C0914B020E94B1016B017C018091230225
:100AC00081116BC082E080932302109322028FEF8A
:100AD0008093210210922002D0931F02ABE2B2E079
:100AE000EFEFF1E080E0D81391C01092FE01809109
:100AF000FE01CC0FC82BC093FE018091FD01813017
:100B000009F088C01092FD010E94B1016B017C01C7
:100B10008091FE018093BB00809125029091260276
:100B2000A0912702B0912802892B8A2B8B2BA1F050
:100B30000E94B10100912502109126022091270206
:100B4000309128026C197D098E099F090617170735
:100B50002807390708F442C08091BC0083FDD8CF34
:100B600085EC8093BC000E94B1016B017C018091F7
:100B70002302823009F450C0809121028F3F09F492
:100B80006FC080912102803209F46CC080912102F3
:100B9000803309F469C084E026C0809125029091D9
:100BA0002602A0912702B0912802892B8A2B8B2B39
:100BB00009F484CF0E94B101809025029090260212
:100BC000A0902702B09028026C197D098E099F0918
:100BD00086169706A806B90608F070CF8091240201
:100BE0000E94250585E010922A0210924C02109274
:100BF0002902DF91CF911F910F91FF90EF90DF902D
:100C0000CF90BF90AF909F908F9008959D919193BA
:100C10008F5F69CF85EEA5CF809125029091260246
:100C2000A0912702B0912802892B8A2B8B2B09F4E3
:100C30009ECF0E94B10100912502109126022091C1
:100C40002702309128026C197D098E099F09061729
:100C500017072807390708F08ACFC0CF81E0C3CF34
:100C600080E0C1CF82E0BFCF83E0BDCF0895E091A7
:100C7000D9018091D801E81730F4F0E0E859FE4F2F
:100C8000808190E008958FEF9FEF08959091D901B2
:100C90008091D8012FEF3FEF981748F4E92FF0E04B
:100CA000E859FE4F208130E09F5F9093D901C90140
:100CB00008958091D8019091D901891B990B0895CD
:100CC000CF92DF92EF92FF920F931F93CF93DF9318
:100CD0007C01CB018A0120912902222389F0EB01BA
:100CE0006B01C40ED51ECC15DD0569F06991D701E5
:100CF000ED91FC910190F081E02DC7010995F3CFB2
:100D0000642F0E94E004C801DF91CF911F910F91E1
:100D1000FF90EF90DF90CF900895CF93DF931F92D5
:100D2000CDB7DEB76983209129022223F9F0209103
:100D30004C02203258F021E030E0FC013383228362
:100D400090E080E00F90DF91CF91089580912A028A
:100D5000E82FF0E0E55DFD4F998190838F5F8093F0
:100D60002A0280934C0281E090E0ECCF61E0CE015A
:100D700001960E94E004F7CFCF93DF93EA0191E060
:100D80009093290280934B0210922A0210924C02F7
:100D90008AE393E00E948D0668818AE393E00E94D3
:100DA0008D0681E00E94460591E0811190E0892F37
:100DB000DF91CF91089590E080E0089585ED8093D4
:100DC000BC008091250290912602A0912702B0914B
:100DD00028020796A11DB11D23E0B695A79597950A
:100DE00087952A95D1F72091BC0024FD03C010926D
:100DF0002302089540912502509126026091270216
:100E000070912802452B462B472B69F30097A105CB
:100E1000B10541F02AE22A95F1F700C00197A10936
:100E2000B109E1CF809124020C9425052F923F92C5
:100E30004F925F926F927F928F929F92AF92BF92EA
:100E4000CF92DF92EF92FF920F931F93CF93DF9396
:100E5000CDB7DEB72B970FB6F894DEBF0FBECDBF70
:100E6000D82EC62EF42E3D832C8318018FB7F8940C
:100E70004090E7015090E8016090E9017090EA012C
:100E80008FBF2D2D220F2B83142FE12C1B8601E009
:100E900050E05A834983C101B0E0A0E08E839F8374
:100EA000A887B98700932902D0924B0210922A0298
:100EB00010924C026C2D8AE393E00E948D0681E033
:100EC0000E9446050E94B1014B015C018091230202
:100ED00081116DC01A87113210F090E29A87009349
:100EE000230200932202AFEFA0932102109220026E
:100EF0008A85815080931F020093FE018091FE013C
:100F0000BB818B2B8093FE018091FD01813009F024
:100F100092C01092FD010E94B1014B015C018091D1
:100F2000FE018093BB008091250290912602A09142
:100F30002702B0912802892B8A2B8B2BA1F00E94CB
:100F4000B101209125023091260240912702509153
:100F50002802681979098A099B0926173707480763
:100F6000590708F445C08091BC0083FDD8CF25EC1B
:100F70002093BC000E94B1014B015C0180912302CF
:100F8000813009F45CC0809120024A85841718F4EE
:100F9000509120025A87AFEFB1E0E8E6F1E080E03F
:100FA0009A85891751F19D9191938F5FF9CF809127
:100FB000250290912602A0912702B0912802892B48
:100FC0008A2B8B2B09F482CF0E94B101209125023C
:100FD0003091260240912702509128026819790920
:100FE0008A099B09261737074807590708F06ECF6B
:100FF000809124020E9425051A861092D901AA85A3
:10100000A093D8019091D8018091D901981709F443
:1010100051C021143104A9F58AE393E00E944606E9
:10102000EC81FD81BB85EB0FF11DB7FDFA95808347
:10103000BF5FBB87E7CF35EE3093BC009BCF80917D
:10104000250290912602A0912702B0912802892BB7
:101050008A2B8B2B09F492CF0E94B101209125029B
:10106000309126024091270250912802681979098F
:101070008A099B09261737074807590708F07ECFCA
:10108000B7CF2FB7F8948091E7019091E801A09134
:10109000E901B091EA012FBF84199509A609B709A2
:1010A0002E813F814885598582179307A407B5078C
:1010B00008F4B2CFEF0C1F19EF1408F4F3CE21148B
:1010C000310411F18FB7F8944091E7015091E80194
:1010D0006091E9017091EA018FBF441955096609D1
:1010E0007709C101B0E0A0E0481759076A077B07FC
:1010F00058F03B85832F330F990B49815A81841710
:10110000950714F45FEF5B878B852B960FB6F894E9
:10111000DEBF0FBECDBFDF91CF911F910F91FF902A
:10112000EF90DF90CF90BF90AF909F908F907F9087
:101130006F905F904F903F902F900895BF92CF9205
:10114000DF92EF92FF920F931F93CF93DF9300D024
:10115000CDB7DEB7F82EE62EC42EB22ED02E08EE76
:1011600013E09E012E5F3F4F41E00E941607882347
:1011700099F18C2D8B19990BAC014F5F5F4F81E07A
:1011800090E002C0880F991FBA94E2F70197042EED
:1011900001C0880F0A94EAF70D2D01C0000F4A958F
:1011A000EAF7982F90952A8192238023892B8A83AE
:1011B0008983AE014F5F5F4F6E2D8F2D0E94BC065D
:1011C0000F900F90DF91CF911F910F91FF90EF90B3
:1011D000DF90CF90BF90089580E0F2CF1F920F92E2
:1011E0000FB60F9211242F933F938F939F93AF933A
:1011F000BF938091E7019091E801A091E901B0913E
:10120000EA013091E60123E0230F2D3758F50196CE
:10121000A11DB11D2093E6018093E7019093E801A1
:10122000A093E901B093EA018091EB019091EC0168
:10123000A091ED01B091EE010196A11DB11D809329
:10124000EB019093EC01A093ED01B093EE01BF91FF
:10125000AF919F918F913F912F910F900FBE0F9063
:101260001F90189526E8230F0296A11DB11DD2CF1D
:101270001F920F920FB60F9211248F939F9380911C
:10128000E1009091E100937F9093E10083FF0FC014
:101290001092E90091E09093EB001092EC0092E341
:1012A0009093ED001092FC0198E09093F00082FF83
:1012B00022C093E09093E9009091F200992319F0F5
:1012C0009AE39093E8009091D101992341F0909195
:1012D000D10191509093D101911101C05D9A9091EB
:1012E000FB01992341F09091FB0191509093FB01F8
:1012F000911101C0289A84FF18C08091E2008E7E6F
:1013000081608093E2008091E1008F7E8093E10014
:101310008091D2018E7E80618093D2019F918F91C6
:101320000F900FBE0F901F90189580FFF7CF809100
:10133000E2008E7E80618093E2008091E1008E7EEB
:101340008093E1008091D2018E7E8160E5CF1F9273
:101350000F920FB60F921124CF92DF92EF92FF926D
:101360000F931F932F933F934F935F936F937F93AD
:101370008F939F93AF93BF93EF93FF93CF93DF939D
:10138000CDB7DEB76C97DEBFCDBF1092E90080917C
:10139000E80083FF25C068E0CE0145960E94C202A6
:1013A00082EF8093E8008D8987FF39C09091E80033
:1013B00090FFFCCF982F907609F034C19E894F8919
:1013C000588D2F89F88C911131C0803861F580914A
:1013D000D3018093F1001092F1008EEF8093E8002A
:1013E0006C960FB6F894DEBF0FBECDBFDF91CF91E4
:1013F000FF91EF91BF91AF919F918F917F916F91ED
:101400005F914F913F912F911F910F91FF90EF901E
:10141000DF90CF900F900FBE0F901F9018959EEF0A
:101420009093E800C7CF1092F100D5CF913059F4D6
:101430008111D3CF4130510581F68091D3018D7F49
:101440008093D301CACF933049F48111C6CF413084
:10145000510519F68091D3018260F2CF953041F4A5
:101460008091E80080FFFCCF20682093E300B5CF97
:10147000963009F0A9C00B8D1C8D22E01092E90076
:101480001092CF011092CE01F2122EC01092CD0117
:101490001092CC010E9491021F8299E09983FA82F6
:1014A00091E09E8390EA98879AEF99872091CE01E8
:1014B0003091CF01275F3F4F3C832B838D83109268
:1014C000E9001092CF011092CE011093CD0100934C
:1014D000CC0149E050E0BE016F5F7F4F80E00E9489
:1014E0006B020E94910279CF1093CD010093CC0141
:1014F0000E942C01DC0112960D911C910115110521
:1015000009F451C1D801ED91FC910480F581E02DE1
:10151000BE016B5E7F4FC8010995009709F03EC17F
:10152000F80100851185EACFF3E0FF120EC08F8924
:10153000882309F440C0823061F440E860E180E132
:1015400091E00E943802811148CF81E28093EB0044
:1015500047CF813029F440E86BE084E091E0F1CF9F
:10156000833099F70E942C01DC011296ED90FC90DB
:101570008E010F5F1F4F6801E114F10479F0D7016C
:10158000ED91FC910680F781E02DB801C701099526
:10159000080F111DF701E084F184EECFD8011C92F1
:1015A000F60101900020E9F73197BF016C197D0920
:1015B00040E0C601C6CF6EEE70E0FB01449150E002
:1015C00080E80E946B0209CF973009F4BECF9830B3
:1015D00021F481E08093F10000CF993009F0FDCE35
:1015E000837009F0B2CFEDE0F1E081E031E096E305
:1015F0002191222371F08093E9003093EB00DF0109
:1016000011972C912093EC009093ED008F5F873021
:1016100079F78EE78093EA001092EA008F89809331
:10162000FC01DBCE8B8D9C8D1092E9001092CF01D6
:101630001092CE019093CD018093CC01898D8111C0
:1016400092C08E899D89913A49F4813209F07DCF0B
:1016500047E050E064E071E080E0B3CF913209F000
:1016600074CF833269F48F89988DB0E0A0E08093C5
:10167000000190930101A0930201B0930301ADCE4C
:10168000803269F48091E80082FFFCCF67E084E05B
:1016900091E00E94C2028BEF8093E8009ECE8232DE
:1016A00009F09BCE8F8980930B01EEEFFFE78591C8
:1016B00094918B3F9C4D51F1E0E0F8E08091040162
:1016C00090910501A0910601B0910701803B9440E3
:1016D000A105B105F1F480910B0180FD1AC0EE3F28
:1016E0008AE0F80789F587E797E7918380838091FF
:1016F00060008093D00188E19BE00FB6F894A89534
:10170000809360000FBE9093600067CEEEEFFAE02A
:10171000D5CF808191818737974709F05ECEA89514
:10172000809160008861809360008091D0018093F7
:101730006000EE3F2AE0F20789F08091FE0A909166
:10174000FF0A9183808349CE8081918187379807F2
:1017500051F29093FF0A8093FE0AC5CF1092FF0AC0
:101760001092FE0A3ACE0E942C01DC0112960D91D5
:101770001C910115110509F4E8CED801ED91FC91F9
:101780000190F081E02DBE016B5E7F4FC80109958D
:10179000811123CEF80100851185EBCF18161906AB
:1017A0000CF41BCED2CEF1E0FF12BECE62EF70E0A1
:1017B00004CF1F920F920FB60F9211242F933F93D5
:1017C0004F935F936F937F938F939F93AF93BF9349
:1017D000EF93FF938DE492E00E944D03FF91EF9110
:1017E000BF91AF919F918F917F916F915F914F9139
:1017F0003F912F910F900FBE0F901F9018951F9241
:101800000F920FB60F9211242F938F939F93EF9304
:10181000FF93E0915D02F0915E028081E0916302AE
:10182000F091640282FD1BC09081809166028F5FFF
:101830008F7320916702821741F0E0916602F0E019
:10184000E35BFD4F958F80936602FF91EF919F912F
:101850008F912F910F900FBE0F901F901895808140
:10186000F4CF1F920F920FB60F9211242F933F9334
:101870004F935F936F937F938F939F93AF93BF9398
:10188000EF93FF938091B900887F803609F44AC0B6
:10189000F0F5883209F4A7C018F5803109F49BC02F
:1018A000B8F4882309F4F9C0883009F494C0FF9192
:1018B000EF91BF91AF919F918F917F916F915F91C8
:1018C0004F913F912F910F900FBE0F901F90189541
:1018D000883109F488C0803251F78093210214C006
:1018E000803409F49DC040F48033B9F38833F9F6AD
:1018F0008093210285ECB0C0803509F485C088351D
:1019000009F496C0883499F60E94DE06D0CF883953
:1019100009F48CC038F5883729F050F4883611F076
:10192000803729F683E0809323021092CB0157C0C1
:10193000883809F47BC0803919F0803809F0B7CFB6
:101940008091CB01803208F071C0E091CB0181E041
:101950008E0F8093CB018091BB00F0E0E555FE4FE8
:1019600080833DC0803B39F0E0F4803A09F479C0CF
:10197000883A09F09CCF84E0809323021092AA0158
:101980001092A901E091D601F091D70109958091BB
:10199000A90181110FC081E08093A90110928901F2
:1019A00009C0803C09F4A6CF883C09F4A3CF883B4A
:1019B00009F07DCFE091AA0181E08E0F8093AA010A
:1019C000F0E0E757FE4F80818093BB009091AA0121
:1019D0008091A90129C08091FE018093BB0085EC14
:1019E0008093BC0064CF9091200280911F029817D1
:1019F00058F5E091200281E08E0F80932002F0E004
:101A0000E150FE4F8081E9CFE091200281E08E0F0E
:101A1000809320028091BB00F0E0E150FE4F808374
:101A20009091200280911F029817C8F285E8D8CFC4
:101A3000E091200281E08E0F809320028091BB0014
:101A4000F0E0E150FE4F80838091220281115CCF53
:101A500081E08093FD0184EA8093BC001092230210
:101A600026CF85EC8093BC00109223028091CB019D
:101A7000803230F4E091CB01F0E0E555FE4F10826A
:101A80006091CB0170E0E091D401F091D5018BEA37
:101A900091E009951092CB010ACF1092210234CF28
:101AA000EDE4F2E01382128288EE93E0A0E0B0E071
:101AB00084839583A683B78327E131E03183208334
:101AC0002DEC30E0358724872CEC30E037872687F3
:101AD00028EC30E0318B208B29EC30E0338B228BEB
:101AE0002AEC30E0358B248B2EEC30E0378B268BC4
:101AF000118E128E138E148EEAEEF2E01382128291
:101B000084839583A683B78329E231E031832083E0
:101B10002FEF3FEF35872487EAE3F3E01382128249
:101B200084839583A683B7838BE391E0918380833D
:101B300088E6809346030895CF93DF9300D0CDB716
:101B4000DEB7789484B5826084BD84B5816084BD3D
:101B500085B5826085BD85B5816085BD80916E004B
:101B6000816080936E00109281008091810082607C
:101B700080938100809181008160809381008091B9
:101B800080008160809380008091910082608093CA
:101B900091008091910081608093910080919000EC
:101BA0008160809390008091C10084608093C10027
:101BB0008091C10082608093C1008091C1008160EA
:101BC0008093C1008091C30081608093C3008091A5
:101BD000C00082608093C0008091C20081608093C9
:101BE000C20080917A00846080937A0080917A00AC
:101BF000826080937A0080917A00816080937A007D
:101C000080917A00806880937A001092FC01109293
:101C1000D3011092D2018091D70081608093D700C8
:101C200080EA8093D80089B5806189BD89B58260DA
:101C300089BD09B400FEFDCF61E070E080E090E076
:101C40000E94D6018091D8008F7C80618093D8005B
:101C50008091E000807F8093E0008091E1008E7EA3
:101C60008093E1008DE08093E200559A209AE09104
:101C70005D02F0915E0282E08083E0915902F09172
:101C80005A021082E0915B02F0915C028FEC80833B
:101C900010926502E0916102F091620286E0808319
:101CA000E0915F02F0916002808180618083E09129
:101CB0005F02F0916002808188608083E0915F0222
:101CC000F0916002808180688083E0915F02F091F2
:101CD000600280818F7D80831092D9011092D8019B
:101CE00010922A0210924C020E94070588E092E0AE
:101CF0009093D7018093D60189E092E09093D5012B
:101D00008093D4018FEF9FEF9093F7028093F602B8
:101D10004BE150E069E471E08AEE92E00E94DA0360
:101D200042E050E065E671E08AEE92E00E94DA035C
:101D300001E023E042E06BE6809146030E949E08AA
:101D400000E022E044E06BE1809146030E949E089F
:101D500022E044E06CE1809146030E949E08F090EE
:101D6000460308EE13E09E012E5F3F4F41E06BE615
:101D70008F2D0E9416078A818F7B8A838983AE010B
:101D80004F5F5F4F6BE68F2D0E94BC0664E670E0EC
:101D900080E090E00E94D60120E0E22E20E0F22ECA
:101DA00008EE13E027E433E04EE06BE38091460356
:101DB0000E9416078091470390914803982789272E
:101DC00098279093E5018093E40160914903709115
:101DD0004A037627672776277093E3016093E20131
:101DE00080914B0390914C039827892798279093D3
:101DF000E1018093E00180914F0390915003982777
:101E0000892798279093DF018093DE018091510309
:101E1000909152039827892798279093DD0180930A
:101E2000DC018091530390915403982789279827C8
:101E30009093DB018093DA01072E000C880B990B3D
:101E40000E94981020E030EB4EE756E40E94EE0F1F
:101E500020E030E040E85FE30E947D0F20E030E0CA
:101E600040E05FE30E944D114B015C0120E030E057
:101E700040E85FE30E9448111816BCF120E030E012
:101E8000A901C501B4010E94E90F87FF03C0812C9D
:101E9000912C540120E030E847E853E4C501B40137
:101EA0000E944D110E9460109B0177FF02C0215FCC
:101EB0003F4FB90184E0759567958A95E1F78DE408
:101EC00092E00E946E0364E670E080E090E00E9481
:101ED000D601E114F10409F463CF0E943903882389
:101EE00009F45ECF0E9400005BCF812C912C90E81A
:101EF000A92E9FE3B92ECECF5058BB27AA270E9408
:101F0000940F0C940E110E94001138F00E940711DA
:101F100020F039F49F3F19F426F40C94FD100EF4D0
:101F2000E095E7FB0C94F710E92F0E941F1158F37E
:101F3000BA17620773078407950720F079F4A6F5AE
:101F40000C9441110EF4E0950B2EBA2FA02D0B012D
:101F5000B90190010C01CA01A0011124FF27591BEE
:101F600099F0593F50F4503E68F11A16F040A22FF4
:101F7000232F342F4427585FF3CF46953795279565
:101F8000A795F0405395C9F77EF41F16BA0B620B64
:101F9000730B840BBAF09150A1F0FF0FBB1F661FAB
:101FA000771F881FC2F70EC0BA0F621F731F841FEE
:101FB00048F4879577956795B795F7959E3F08F014
:101FC000B0CF9395880F08F09927EE0F97958795D6
:101FD00008950E94D31008F481E008950E94021031
:101FE0000C940E110E94071158F00E94001140F04D
:101FF00029F45F3F29F00C94F71051110C94421111
:102000000C94FD100E941F1168F39923B1F355231E
:1020100091F3951B550BBB27AA27621773078407FB
:1020200038F09F5F5F4F220F331F441FAA1FA9F391
:1020300035D00E2E3AF0E0E832D091505040E6957F
:10204000001CCAF72BD0FE2F29D0660F771F881FE0
:10205000BB1F261737074807AB07B0E809F0BB0BD3
:10206000802DBF01FF2793585F4F3AF09E3F5105E7
:1020700078F00C94F7100C9442115F3FE4F3983E13
:10208000D4F3869577956795B795F7959F5FC9F7D0
:10209000880F911D9695879597F90895E1E0660F51
:1020A000771F881FBB1F621773078407BA0720F0CA
:1020B000621B730B840BBA0BEE1F88F7E095089533
:1020C0000E9467106894B1110C94421108950E9407
:1020D000271188F09F5798F0B92F9927B751B0F082
:1020E000E1F0660F771F881F991F1AF0BA95C9F79C
:1020F00014C0B13091F00E944111B1E008950C94E8
:102100004111672F782F8827B85F39F0B93FCCF39A
:10211000869577956795B395D9F73EF49095809518
:10212000709561957F4F8F4F9F4F0895E89409C038
:1021300097FB3EF490958095709561957F4F8F4FFA
:102140009F4F9923A9F0F92F96E9BB279395F69510
:10215000879577956795B795F111F8CFFAF4BB0F8E
:1021600011F460FF1BC06F5F7F4F8F4F9F4F16C0F2
:10217000882311F096E911C0772321F09EE8872F7C
:10218000762F05C0662371F096E8862F70E060E038
:102190002AF09A95660F771F881FDAF7880F9695B1
:1021A000879597F90895990F0008550FAA0BE0E855
:1021B000FEEF16161706E807F907C0F01216130609
:1021C000E407F50798F0621B730B840B950B39F449
:1021D0000A2661F0232B242B252B21F408950A26AF
:1021E00009F4A140A6958FEF811D811D089597F9EF
:1021F0009F6780E870E060E008959FEF80EC0895AD
:1022000000240A94161617061806090608950024D5
:102210000A9412161306140605060895092E03944F
:10222000000C11F4882352F0BB0F40F4BF2B11F4C3
:1022300060FF04C06F5F7F4F8F4F9F4F089557FD22
:102240009058440F551F59F05F3F71F04795880F24
:1022500097FB991F61F09F3F79F0879508951216BB
:1022600013061406551FF2CF4695F1DF08C0161667
:1022700017061806991FF1CF869571056105089418
:102280000895E894BB2766277727CB0197F908952F
:102290000E94D31008F48FEF08950E9460110C94EF
:1022A0000E110E94001138F00E94071120F09523B2
:1022B00011F00C94F7100C94FD1011240C944211A1
:1022C0000E941F1170F3959FC1F3950F50E0551FA9
:1022D000629FF001729FBB27F00DB11D639FAA277B
:1022E000F00DB11DAA1F649F6627B00DA11D661FCA
:1022F000829F2227B00DA11D621F739FB00DA11DEB
:10230000621F839FA00D611D221F749F3327A00DA4
:10231000611D231F849F600D211D822F762F6A2F40
:1023200011249F5750409AF0F1F088234AF0EE0FA5
:10233000FF1FBB1F661F771F881F91505040A9F7D2
:102340009E3F510580F00C94F7100C9442115F3FB2
:10235000E4F3983ED4F3869577956795B795F7950E
:10236000E7959F5FC1F7FE2B880F911D9695879586
:1023700097F90895EE0FFF1F0590F491E02D099451
:04238000F894FFCFFF
:10238400FFFFFFFF00E100000000000000C18081AA
:10239400000000000000006E03CF02FC02BA032D0F
:1023A400030B031F03000000005F04DA03800475BD
:1023B40004C6048404A204000000008D066006DB49
:1023C400063606590646063706496E697469616C15
:1023D400697A696E6720493243206465766963656A
:0823E400732E2E2E000D0A00DD
:00000001FF
