:100000000C94C7000C94EF000C94EF000C94EF00DC
:100010000C94EF000C94EF000C94EF000C94EF00A4
:100020000C94EF000C94EF000C945A090C94C9093D
:100030000C94EF000C94EF000C94EF000C94EF0084
:100040000C94EF000C94EF000C94EF000C94EF0074
:100050000C94EF000C94EF000C94EF000C9410093A
:100060000C94EF000C94EF000C94EF000C94EF0054
:100070000C94EF000C94EF000C94EF000C94EF0044
:100080000C94EF000C94EF000C94EF000C94EF0034
:100090000C94FB0B0C94EF000C94EF000C94EF000D
:1000A0000C94EF000C94EF000C94EF00080B00028E
:1000B0000202000009040000010202000005240001
:1000C0001001052401010104240206052406000193
:1000D0000705810310004009040100020A00000026
:1000E00007050202400000070583024000000403E8
:1000F000090412010002EF02014041233680000191
:100100000102030141726475696E6F204C4C43001B
:1001100041726475696E6F204C656F6E6172646FB9
:100120000000000000250028002B002E00310004F4
:10013000040404040304050202020204030202028E
:100140000206060606060604040202020404040867
:1001500002011040804010204080408008020401CD
:10016000804020100201108010204040200000003C
:100170000200090F0000030401000C000000000051
:100180000000000000000000000000001A0D112413
:100190001FBECFEFDAE0DEBFCDBF11E0A0E0B1E0DF
:1001A000E8EFF2E202C005900D92AC36B107D9F744
:1001B00022E0ACE6B1E001C01D92AC3BB207E1F732
:1001C00010E0C7ECD0E004C02197FE010E9474113A
:1001D000C63CD107C9F70E943E0D0C947A110C94CD
:1001E0000000FC0180910002882311F13FB7F894D0
:1001F00082E08093E9002091F200822F90E01816AF
:10020000190614F481E090E0882339F0289844E638
:100210004093FF014091F1004083222339F0209167
:10022000F200211103C02BE62093E8003FBF0895A0
:100230008FEF9FEF08952FB7F89483E08093E90044
:100240009091E800892F807295FF04C09091F20090
:1002500080E4891B2FBF08958091F70181110DC0A3
:1002600082E08093F30184E08093F4011092F60120
:100270001092F50181E08093F70183EF91E00895FA
:10028000282F30E0F901E359FE4F9491F901E25B28
:10029000FE4F8491215D3E4FF9012491222309F400
:1002A00030C09923E9F091509F30D0F4E92FF0E06D
:1002B000E45AFE4F0C9474118A018E016B01820185
:1002C0008601700170017001910197019B019F01EE
:1002D000A5017001A901909180009F779093800003
:1002E000E22FF0E0EE0FFF1FEF5DFE4FA591B491FE
:1002F0009FB7F894EC91611132C080958E238C9356
:100300009FBF0895909180009F7DE8CF90918000DD
:10031000977FE4CF94B59F7794BDE2CF94B59F7D4E
:10032000FBCF909190009F7790939000D9CF9091C0
:1003300090009F7DF9CF90919000977FF5CF90919D
:10034000C0009F779093C000CBCF9091C0009F7D5D
:10035000F9CF9091C200977F9093C200C1CF8E2BAE
:10036000CECF3FB7F8948091EF019091F001A0912A
:10037000F101B091F20126B5A89B05C02F3F19F0FD
:100380000196A11DB11D3FBFBA2FA92F982F882715
:10039000BC01CD01620F711D811D911D42E0660FF0
:1003A000771F881F991F4A95D1F708958F929F92C2
:1003B000AF92BF92CF92DF92EF92FF924B015C011E
:1003C0000E94B1016B017C010E94B1016C197D0991
:1003D0008E099F09683E734081059105A8F321E0CD
:1003E000821A9108A108B10888EEC80E83E0D81ED1
:1003F000E11CF11C81149104A104B10429F7FF90C0
:10040000EF90DF90CF90BF90AF909F908F90089526
:10041000089508954091D2015091D3012091D001C7
:100420003091D10142175307B4F49091E8009570D0
:10043000E1F39091E80092FD19C08093F100809162
:10044000D2019091D30101968F739927892B19F4CA
:100450008EEF8093E8008091D2019091D3010196B4
:100460009093D3018093D20181E0089580E00895B4
:10047000EF92FF920F931F93CF93DF93F82E192FD4
:10048000E62E042F81E0860F880F0E940A0283E087
:100490000E940A02CF2DD12FEC0EFD2EF11CCE159D
:1004A000DF05B9F007FF13C0FE0184910E940A0224
:1004B000182F80E00E940A02812321968111EFCF3C
:1004C000DF91CF911F910F91FF90EF900895888158
:1004D000EDCF81E0F5CFDF92EF92FF920F931F9364
:1004E000CF93DF93D82E8A01EB017B01E40EF51E3A
:1004F000CE15DF0559F0D7FE12C0FE0184910E948F
:100500000A0221968111F4CF0FEF1FEFC801DF918E
:10051000CF911F910F91FF90EF90DF900895888108
:10052000EECF0F931F93CF93DF931F92CDB7DEB71C
:1005300082E0898342E450E06CEA70E080E80E9447
:100540006B020E942C01DC0112960D911C91011589
:10055000110589F0D801ED91FC910280F381E02D25
:10056000BE016F5F7F4FC801099597FD04C0F80178
:1005700000851185ECCF89810F90DF91CF911F917C
:100580000F910895615030F02091F100FC0120831B
:100590000196F8CF289884E68093FF0108958F9202
:1005A0009F92AF92BF92CF92DF92EF92FF920F9302
:1005B0001F93CF93DF936C017B018A0180910B0124
:1005C000882309F45CC080910002882309F457C095
:1005D0008091D60180FF05C08091E0008260809309
:1005E000E000E801B12C8AEFA82E93E0892E2AE3DF
:1005F000922E209711F4BB20D9F10E941B0181118A
:100600000AC0AA94AA20D9F161E070E080E090E0ED
:100610000E94D601EECF8C171D0611F00CF08C2F26
:100620009FB7F8948092E9002091E80025FD02C070
:100630009FBFDFCF282F30E0C21BD30BF7018150C3
:1006400020F041914093F100FACFE20EF31EBB205F
:1006500021F09092E800B12CEBCF8091E80085FD6D
:10066000E7CF9092E800BB24B394209709F3F3CF2F
:100670005D9884E68093D501101611063CF081E068
:1006800090E0F6019383828310E000E0C801DF91DF
:10069000CF911F910F91FF90EF90DF90CF90BF907F
:1006A000AF909F908F900895CF93DF931F92CDB717
:1006B000DEB76983DC01ED91FC910280F381E02DCE
:1006C00041E050E0BE016F5F7F4F09950F90DF91D1
:1006D000CF91089583E08093E9008091F200882310
:1006E00019F08AE38093E80008950E941B0190E0CE
:1006F0000895CF93DF931F92CDB7DEB7FC018485B9
:10070000958597FD08C02FEF3FEF358724870F9021
:10071000DF91CF910895CE0101960E94F1000197DB
:1007200019F4898190E0F3CF8FEF9FEFF0CF0F9313
:100730001F93CF93DF931F92CDB7DEB78C01FC01DF
:100740008485958597FF0BC0CE0101960E94F1002C
:10075000019771F4898190E0F80195878487F80109
:10076000848595850F90DF91CF911F910F9108950A
:100770008FEF9FEFF1CFFC018485958597FD0BC02E
:100780009FB7F89482E08093E9008091F2009FBFC8
:1007900090E0019608959FB7F89482E08093E90075
:1007A0008091F2009FBF90E008952091AD01260F47
:1007B0003327331F21323105ECF420912702FC014D
:1007C00090E080E0243069F082E00895A091AD01CE
:1007D0002191AC0143575E4FA40FB52FB11D2C934F
:1007E0000196861798F38091AD01680F6093AD0173
:1007F00080E0089581E008951092270281E08093BF
:1008000026021092010261E082E00E94400161E054
:1008100083E00E944001E9EBF0E080818E7F8083DD
:1008200080818D7F808388E48093B80085E4809305
:10083000BC000895CF93DF9391E090938C018823BF
:10084000B9F0C091B800D091BA008091BC008A7B09
:100850008093BC0060E082E00E94400160E083E0A1
:100860000E9440010E94FC03D093BA00C093B800DC
:10087000DF91CF9108958F929F92AF92BF92CF92C6
:10088000DF92EF92FF920F931F93CF93DF93D0915C
:100890005002D13208F0D7C0182FC0914F020E94E9
:1008A000B1016B017C018091270281116BC082E054
:1008B00080932702109326028FEF809325021092D7
:1008C0002402D0932302AFE2B2E0E3E0F2E080E062
:1008D000D81391C01092020280910202CC0FC82B53
:1008E000C093020280910102813009F088C0109209
:1008F00001020E94B1016B017C0180910202809390
:10090000BB008091290290912A02A0912B02B09104
:100910002C02892B8A2B8B2BA1F00E94B101009114
:10092000290210912A0220912B0230912C026C197D
:100930007D098E099F09061717072807390708F44C
:1009400042C08091BC0083FDD8CF85EC8093BC0071
:100950000E94B1016B017C0180912702823009F471
:1009600050C0809125028F3F09F46FC0809125020D
:10097000803209F46CC080912502803309F469C08B
:1009800084E026C08091290290912A02A0912B0236
:10099000B0912C02892B8A2B8B2B09F484CF0E94D7
:1009A000B1018090290290902A02A0902B02B09071
:1009B0002C026C197D098E099F0986169706A806D8
:1009C000B90608F070CF809128020E941A0485E0D1
:1009D00010922E021092500210922D02DF91CF91B0
:1009E0001F910F91FF90EF90DF90CF90BF90AF904D
:1009F0009F908F9008959D9191938F5F69CF85EE21
:100A0000A5CF8091290290912A02A0912B02B0914A
:100A10002C02892B8A2B8B2B09F49ECF0E94B101CB
:100A20000091290210912A0220912B0230912C0270
:100A30006C197D098E099F090617170728073907C2
:100A400008F08ACFC0CF81E0C3CF80E0C1CF82E081
:100A5000BFCF83E0BDCF0895E091DD018091DC013F
:100A6000E81730F4F0E0E459FE4F808190E00895FB
:100A70008FEF9FEF08959091DD018091DC012FEFC2
:100A80003FEF981748F4E92FF0E0E459FE4F20813A
:100A900030E09F5F9093DD01C90108958091DC01F2
:100AA0009091DD01891B990B0895CF92DF92EF920F
:100AB000FF920F931F93CF93DF937C01CB018A01A9
:100AC00020912D02222389F0EB016B01C40ED51E6B
:100AD000CC15DD0569F06991D701ED91FC9101908C
:100AE000F081E02DC7010995F3CF642F0E94D50353
:100AF000C801DF91CF911F910F91FF90EF90DF9090
:100B0000CF900895CF93DF931F92CDB7DEB769835F
:100B100020912D022223F9F020915002203258F02A
:100B200021E030E0FC013383228390E080E00F90ED
:100B3000DF91CF91089580912E02E82FF0E0E15DE2
:100B4000FD4F998190838F5F80932E028093500296
:100B500081E090E0ECCF61E0CE0101960E94D503E8
:100B6000F7CFCF93DF93EA0191E090932D0280932A
:100B70004F0210922E021092500281EA92E00E94DF
:100B80008205688181EA92E00E94820581E00E94EC
:100B90003B0491E0811190E0892FDF91CF9108957E
:100BA00090E080E00895FC0101900020E9F7319782
:100BB000AF01481B590BBC0181E592E00C94CF02B8
:100BC0008F929F92AF92BF920F931F93CF93DF9319
:100BD000CDB7DEB7A1970FB6F894DEBF0FBECDBF7D
:100BE00019A2423008F44AE08E010F5D1F4F842E97
:100BF000912CB12CA12CA50194010E94160FE62F77
:100C0000B901CA01EA30F4F4E05DD801EE938D0138
:100C1000232B242B252B79F790E080E0109719F0F7
:100C2000CD010E94D305A1960FB6F894DEBF0FBE8A
:100C3000CDBFDF91CF911F910F91BF90AF909F904B
:100C40008F900895E95CE1CF4F925F926F927F920F
:100C50008F929F92AF92BF92CF92DF92EF92FF92CC
:100C60000F931F93CF936B017C01742EAC019B01FA
:100C70000E946F11882399F08FE391E0CF911F912B
:100C80000F91FF90EF90DF90CF90BF90AF909F902B
:100C90008F907F906F905F904F900C94D30546019A
:100CA0005701E894B7F82FEF3FEF4FE75FE7C50133
:100CB000B4010E946F1181110DC02FEF3FEF4FE77C
:100CC0005FE7C501B4010E94A50F18161CF483E468
:100CD00091E0D4CF2FEF3FEF4FE75FE4C701B601BC
:100CE0000E94FD1018161CF487E491E0C7CF2FEF87
:100CF0003FEF4FE75FECC701B6010E94A50F87FDEC
:100D0000F3CF20E030E0A901C701B6010E94A50F92
:100D100010E000E087FF0AC06DE281E592E00E94EA
:100D200054038C01F7FAF094F7F8F094C0E060E017
:100D300070E080E09FE37C1641F020E030E040E28C
:100D400051E40E94AA0FCF5FF6CFA70196010E943F
:100D5000390F2B013C010E941C104B015C014AE041
:100D60000E94E0057C01E00EF11ECC23C1F1C5011B
:100D7000B4010E944B109B01AC01C301B2010E945F
:100D8000380F4B015C016EE281E592E00E94540352
:100D9000E80EF91EC15018F120E030E040E251E4C5
:100DA000C501B4010E9402112B013C010E941C10DC
:100DB0004B01B12CA12C4AE0C501B4010E94E00511
:100DC000E80EF91EC501B4010E944B109B01AC0155
:100DD000C301B2010E94380F4B015C01DBCFC70198
:100DE000CF911F910F91FF90EF90DF90CF90BF9028
:100DF000AF909F908F907F906F905F904F900895ED
:100E00002F923F924F925F926F927F928F929F921A
:100E1000AF92BF92CF92DF92EF92FF920F931F9308
:100E2000CF93DF93CDB7DEB72B970FB6F894DEBF25
:100E30000FBECDBFD82EC62EF42E3D832C831801B5
:100E40008FB7F8944090EB015090EC016090ED0169
:100E50007090EE018FBF2D2D220F2B83142FE12CCC
:100E60001B8601E050E05A834983C101B0E0A0E055
:100E70008E839F83A887B98700932D02D0924F025B
:100E800010922E02109250026C2D81EA92E00E9484
:100E9000820581E00E943B040E94B1014B015C018C
:100EA0008091270281116DC01A87113210F090E2F3
:100EB0009A870093270200932602AFEFA0932502A2
:100EC000109224028A8581508093230200930202AB
:100ED00080910202BB818B2B8093020280910102E0
:100EE000813009F092C0109201020E94B1014B01C1
:100EF0005C01809102028093BB0080912902909155
:100F00002A02A0912B02B0912C02892B8A2B8B2BC9
:100F1000A1F00E94B1012091290230912A02409152
:100F20002B0250912C02681979098A099B0926170E
:100F300037074807590708F445C08091BC0083FD76
:100F4000D8CF25EC2093BC000E94B1014B015C017D
:100F500080912702813009F45CC0809124024A8587
:100F6000841718F4509124025A87A3E0B2E0ECE60B
:100F7000F1E080E09A85891751F19D9191938F5FFF
:100F8000F9CF8091290290912A02A0912B02B09171
:100F90002C02892B8A2B8B2B09F482CF0E94B10162
:100FA0002091290230912A0240912B0250912C026B
:100FB000681979098A099B092617370748075907CD
:100FC00008F06ECF809128020E941A041A861092AF
:100FD000DD01AA85A093DC019091DC018091DD0107
:100FE000981709F451C021143104A9F581EA92E05F
:100FF0000E943B05EC81FD81BB85EB0FF11DB7FD28
:10100000FA958083BF5FBB87E7CF35EE3093BC0096
:101010009BCF8091290290912A02A0912B02B0913E
:101020002C02892B8A2B8B2B09F492CF0E94B101C1
:101030002091290230912A0240912B0250912C02DA
:10104000681979098A099B0926173707480759073C
:1010500008F07ECFB7CF2FB7F8948091EB01909135
:10106000EC01A091ED01B091EE012FBF841995091B
:10107000A609B7092E813F814885598582179307B4
:10108000A407B50708F4B2CFEF0C1F19EF1408F44A
:10109000F3CE2114310411F18FB7F8944091EB0194
:1010A0005091EC016091ED017091EE018FBF4419F8
:1010B000550966097709C101B0E0A0E04817590752
:1010C0006A077B0758F03B85832F330F990B4981C3
:1010D0005A818417950714F45FEF5B878B852B96F5
:1010E0000FB6F894DEBF0FBECDBFDF91CF911F9139
:1010F0000F91FF90EF90DF90CF90BF90AF909F90B7
:101100008F907F906F905F904F903F902F900895B9
:10111000BF92CF92DF92EF92FF920F931F93CF93E4
:10112000DF9300D0CDB7DEB7F82EE62EC42EB22E58
:10113000D02E08EE13E09E012E5F3F4F41E00E944B
:101140000007882399F18C2D8B19990BAC014F5F07
:101150005F4F81E090E002C0880F991FBA94E2F7D8
:101160000197042E01C0880F0A94EAF70D2D01C0E3
:10117000000F4A95EAF7982F90952A8192238023B1
:10118000892B8A838983AE014F5F5F4F6E2D8F2D30
:101190000E94B1050F900F90DF91CF911F910F9199
:1011A000FF90EF90DF90CF90BF90089580E0F2CF56
:1011B00085ED8093BC008091290290912A02A09134
:1011C0002B02B0912C020796A11DB11D23E0B6950C
:1011D000A795979587952A95D1F72091BC0024FD76
:1011E00003C01092270208954091290250912A02CB
:1011F00060912B0270912C02452B462B472B69F3F3
:101200000097A105B10541F02AE22A95F1F700C047
:101210000197A109B109E1CF809128020C941A0429
:101220001F920F920FB60F9211242F933F938F931B
:101230009F93AF93BF938091EB019091EC01A091AC
:10124000ED01B091EE013091EA0123E0230F2D373B
:1012500058F50196A11DB11D2093EA018093EB0181
:101260009093EC01A093ED01B093EE018091EF011A
:101270009091F001A091F101B091F2010196A11DB0
:10128000B11D8093EF019093F001A093F101B09311
:10129000F201BF91AF919F918F913F912F910F904C
:1012A0000FBE0F901F90189526E8230F0296A11DE0
:1012B000B11DD2CF1F920F920FB60F9211248F93B0
:1012C0009F938091E1009091E100937F9093E100E2
:1012D00083FF0FC01092E90091E09093EB00109211
:1012E000EC0092E39093ED001092000298E090934E
:1012F000F00082FF22C093E09093E9009091F20009
:10130000992319F09AE39093E8009091D5019923DD
:1013100041F09091D50191509093D501911101C068
:101320005D9A9091FF01992341F09091FF019150B6
:101330009093FF01911101C0289A84FF18C08091F9
:10134000E2008E7E81608093E2008091E1008F7EDA
:101350008093E1008091D6018E7E80618093D601DA
:101360009F918F910F900FBE0F901F90189580FF47
:10137000F7CF8091E2008E7E80618093E2008091C1
:10138000E1008E7E8093E1008091D6018E7E8160A7
:10139000E5CF1F920F920FB60F921124CF92DF92DA
:1013A000EF92FF920F931F932F933F934F935F936F
:1013B0006F937F938F939F93AF93BF93EF93FF931D
:1013C000CF93DF93CDB7DEB76C97DEBFCDBF109262
:1013D000E9008091E80083FF25C068E0CE014596D2
:1013E0000E94C20282EF8093E8008D8987FF39C096
:1013F0009091E80090FFFCCF982F907609F034C1CF
:101400009E894F89588D2F89F88C911131C0803871
:1014100061F58091D7018093F1001092F1008EEF79
:101420008093E8006C960FB6F894DEBF0FBECDBF78
:10143000DF91CF91FF91EF91BF91AF919F918F91EC
:101440007F916F915F914F913F912F911F910F91DC
:10145000FF90EF90DF90CF900F900FBE0F901F90F6
:1014600018959EEF9093E800C7CF1092F100D5CF6A
:10147000913059F48111D3CF4130510581F68091DB
:10148000D7018D7F8093D701CACF933049F4811162
:10149000C6CF4130510519F68091D7018260F2CF55
:1014A000953041F48091E80080FFFCCF20682093C4
:1014B000E300B5CF963009F0A9C00B8D1C8D22E05A
:1014C0001092E9001092D3011092D201F2122EC0B4
:1014D0001092D1011092D0010E9491021F8299E0D6
:1014E0009983FA8291E09E8390EA98879AEF998790
:1014F0002091D2013091D301275F3F4F3C832B8352
:101500008D831092E9001092D3011092D2011093B2
:10151000D1010093D00149E050E0BE016F5F7F4FE1
:1015200080E00E946B020E94910279CF1093D1015A
:101530000093D0010E942C01DC0112960D911C91A8
:101540000115110509F451C1D801ED91FC910480F8
:10155000F581E02DBE016B5E7F4FC80109950097B4
:1015600009F03EC1F80100851185EACFF3E0FF12D2
:101570000EC08F89882309F440C0823061F440E8AE
:1015800060E180E191E00E943802811148CF81E260
:101590008093EB0047CF813029F440E86BE084E092
:1015A00091E0F1CF833099F70E942C01DC01129673
:1015B000ED90FC908E010F5F1F4F6801E114F10464
:1015C00079F0D701ED91FC910680F781E02DB8010B
:1015D000C7010995080F111DF701E084F184EECFD2
:1015E000D8011C92F60101900020E9F73197BF0164
:1015F0006C197D0940E0C601C6CF6EEE70E0FB01BC
:10160000449150E080E80E946B0209CF973009F4C2
:10161000BECF983021F481E08093F10000CF993063
:1016200009F0FDCE837009F0B2CFE5E1F1E081E091
:1016300031E096E32191222371F08093E900309309
:10164000EB00DF0111972C912093EC009093ED00BB
:101650008F5F873079F78EE78093EA001092EA0077
:101660008F8980930002DBCE8B8D9C8D1092E900D8
:101670001092D3011092D2019093D1018093D001A6
:10168000898D811192C08E899D89913A49F4813268
:1016900009F07DCF47E050E064E071E080E0B3CF37
:1016A000913209F074CF833269F48F89988DB0E05C
:1016B000A0E08093000190930101A0930201B093F8
:1016C0000301ADCE803269F48091E80082FFFCCF47
:1016D00067E084E091E00E94C2028BEF8093E80013
:1016E0009ECE823209F09BCE8F8980930B01EEEF64
:1016F000FFE7859194918B3F9C4D51F1E0E0F8E03C
:101700008091040190910501A0910601B09107011B
:10171000803B9440A105B105F1F480910B0180FD5F
:101720001AC0EE3F8AE0F80789F587E797E79183CB
:101730008083809160008093D40188E19BE00FB6A4
:10174000F894A895809360000FBE9093600067CED8
:10175000EEEFFAE0D5CF808191818737974709F086
:101760005ECEA89580916000886180936000809132
:10177000D40180936000EE3F2AE0F20789F0809167
:10178000FE0A9091FF0A9183808349CE80819181E6
:101790008737980751F29093FF0A8093FE0AC5CFCE
:1017A0001092FF0A1092FE0A3ACE0E942C01DC0130
:1017B00012960D911C910115110509F4E8CED8017E
:1017C000ED91FC910190F081E02DBE016B5E7F4FA9
:1017D000C8010995811123CEF80100851185EBCF51
:1017E000181619060CF41BCED2CEF1E0FF12BECEB5
:1017F00062EF70E004CF1F920F920FB60F92112488
:101800002F933F934F935F936F937F938F939F9308
:10181000AF93BF93EF93FF938091B900887F803699
:1018200009F44AC0F0F5883209F4A7C018F58031F0
:1018300009F49BC0B8F4882309F4F9C0883009F48E
:1018400094C0FF91EF91BF91AF919F918F917F9144
:101850006F915F914F913F912F910F900FBE0F901D
:101860001F901895883109F488C0803251F7809311
:10187000250214C0803409F49DC040F48033B9F3CC
:101880008833F9F68093250285ECB0C0803509F4E1
:1018900085C0883509F496C0883499F60E94D80826
:1018A000D0CF883909F48CC038F5883729F050F446
:1018B000883611F0803729F683E080932702109252
:1018C000CF0157C0883809F47BC0803919F08038BF
:1018D00009F0B7CF8091CF01803208F071C0E0915C
:1018E000CF0181E08E0F8093CF018091BB00F0E0AB
:1018F000E155FE4F80833DC0803B39F0E0F4803AF3
:1019000009F479C0883A09F09CCF84E080932702DB
:101910001092AE011092AD01E091DA01F091DB017D
:1019200009958091AD0181110FC081E08093AD01D7
:1019300010928D0109C0803C09F4A6CF883C09F4BF
:10194000A3CF883B09F07DCFE091AE0181E08E0FFF
:101950008093AE01F0E0E357FE4F80818093BB009F
:101960009091AE018091AD0129C0809102028093D7
:10197000BB0085EC8093BC0064CF909124028091E1
:101980002302981758F5E091240281E08E0F80938E
:101990002402F0E0ED5FFD4F8081E9CFE091240269
:1019A00081E08E0F809324028091BB00F0E0ED5F18
:1019B000FD4F808390912402809123029817C8F2F2
:1019C00085E8D8CFE091240281E08E0F8093240235
:1019D0008091BB00F0E0ED5FFD4F80838091260297
:1019E00081115CCF81E08093010284EA8093BC0086
:1019F0001092270226CF85EC8093BC00109227021C
:101A00008091CF01803230F4E091CF01F0E0E155D8
:101A1000FE4F10826091CF0170E0E091D801F0910B
:101A2000D9018FEA91E009951092CF010ACF109267
:101A3000250234CFE1E5F2E01382128288EE93E0D2
:101A4000A0E0B0E084839583A683B7832FE131E0E3
:101A5000318320832FEF3FEF35872487E1EAF2E0DF
:101A60001382128284839583A683B78381E391E0F6
:101A70009183808388E68093AD020895CF93DF93AE
:101A800000D0CDB7DEB7789484B5826084BD84B5CC
:101A9000816084BD85B5826085BD85B5816085BD69
:101AA00080916E00816080936E0010928100809121
:101AB00081008260809381008091810081608093A9
:101AC00081008091800081608093800080919100EE
:101AD0008260809391008091910081608093910059
:101AE000809190008160809390008091C10084601B
:101AF0008093C1008091C10082608093C100809179
:101B0000C10081608093C1008091C3008160809397
:101B1000C3008091C00082608093C0008091C200A9
:101B200081608093C20080917A00846080937A0003
:101B300080917A00826080937A0080917A0081603F
:101B400080937A0080917A00806880937A00109266
:101B500000021092D7011092D6018091D7008160C7
:101B60008093D70080EA8093D80089B5806189BDD1
:101B700089B5826089BD09B400FEFDCF61E070E0E7
:101B800080E090E00E94D6018091D8008F7C806137
:101B90008093D8008091E000807F8093E000809166
:101BA000E1008E7E8093E1008DE08093E200559A03
:101BB000209A1092DD011092DC0110922E021092F8
:101BC00050020E94FC0388E092E09093DB01809336
:101BD000DA0189E092E09093D9018093D8018FEFE8
:101BE0009FEF90935E0280935D028BE491E00E94F0
:101BF000D30587E691E00E94D30501E023E042E0AF
:101C00006BE68091AD020E94880800E022E044E08B
:101C10006BE18091AD020E94880822E044E06CE113
:101C20008091AD020E948808F090AD0208EE13E0AA
:101C30009E012E5F3F4F41E06BE68F2D0E94000713
:101C40008A818F7B8A838983AE014F5F5F4F6BE60A
:101C50008F2D0E94B10564E670E080E090E00E9464
:101C6000D60180E0E82E80E0F82E08EE13E02EEAA0
:101C700032E04EE06BE38091AD020E94000780915C
:101C8000AE029091AF029827892798279093E90197
:101C90008093E8018091B0029091B1029827892742
:101CA00098279093E7018093E6018091B20290918A
:101CB000B3029827892798279093E5018093E40140
:101CC0000091B6021091B702102701271027109338
:101CD000E3010093E2018091B8029091B902982744
:101CE000892798279093E1018093E001C090BA0280
:101CF000D090BB02DC24CD24DC24D092DF01C09242
:101D0000DE0120E030E040E85FEB6091100170916F
:101D1000110180911201909113010E94A50F811170
:101D200012C066277727601B710B072E000C880BEB
:101D3000990B0E944D1060931001709311018093D4
:101D400012019093130120E030E040E85FEB6091D6
:101D50000C0170910D0180910E0190910F010E9474
:101D6000A50F811112C0662777276C197D09072EF0
:101D7000000C880B990B0E944D1060930C0170931E
:101D80000D0180930E0190930F01B601DD0C880BBD
:101D9000990B0E944D1020910C0130910D01409142
:101DA0000E0150910F010E94390F4B015C01B801E7
:101DB000110F880B990B0E944D102091100130914A
:101DC000110140911201509113010E94390F20E03E
:101DD00030E04AE753E40E94021120E03CE44FEF78
:101DE00056E40E94AA0F42E00E9424068AE691E08F
:101DF0000E94D30520E030E04AE753E4C501B40176
:101E00000E94021120E03CE44FEF56E40E94AA0F2A
:101E100042E00E94240688E691E00E94D305E11486
:101E2000F10409F422CF0E9400001FCFA1E21A2E74
:101E3000AA1BBB1BFD010DC0AA1FBB1FEE1FFF1F6E
:101E4000A217B307E407F50720F0A21BB30BE40BBE
:101E5000F50B661F771F881F991F1A9469F7609505
:101E60007095809590959B01AC01BD01CF010895BF
:101E70005058BB27AA270E94500F0C94C3100E94F1
:101E8000B51038F00E94BC1020F039F49F3F19F4CF
:101E900026F40C94B2100EF4E095E7FB0C94AC1011
:101EA000E92F0E94D41058F3BA176207730784070A
:101EB000950720F079F4A6F50C94F6100EF4E09551
:101EC0000B2EBA2FA02D0B01B90190010C01CA01F4
:101ED000A0011124FF27591B99F0593F50F4503E9F
:101EE00068F11A16F040A22F232F342F4427585F91
:101EF000F3CF469537952795A795F0405395C9F7A9
:101F00007EF41F16BA0B620B730B840BBAF0915060
:101F1000A1F0FF0FBB1F661F771F881FC2F70EC0FF
:101F2000BA0F621F731F841F48F4879577956795D2
:101F3000B795F7959E3F08F0B0CF9395880F08F0BE
:101F40009927EE0F9795879508950E94881008F4B9
:101F500081E008950E94BE0F0C94C3100E94BC1033
:101F600058F00E94B51040F029F45F3F29F00C941E
:101F7000AC1051110C94F7100C94B2100E94D410B4
:101F800068F39923B1F3552391F3951B550BBB27A8
:101F9000AA2762177307840738F09F5F5F4F220FED
:101FA000331F441FAA1FA9F335D00E2E3AF0E0E8E4
:101FB00032D091505040E695001CCAF72BD0FE2F2E
:101FC00029D0660F771F881FBB1F261737074807C2
:101FD000AB07B0E809F0BB0B802DBF01FF2793587A
:101FE0005F4F3AF09E3F510578F00C94AC100C9482
:101FF000F7105F3FE4F3983ED4F3869577956795A5
:10200000B795F7959F5FC9F7880F911D96958795AE
:1020100097F90895E1E0660F771F881FBB1F6217CD
:1020200073078407BA0720F0621B730B840BBA0B8B
:10203000EE1F88F7E09508950E94DC1088F09F5706
:1020400098F0B92F9927B751B0F0E1F0660F771FDC
:10205000881F991F1AF0BA95C9F714C0B13091F0D2
:102060000E94F610B1E008950C94F610672F782FB7
:102070008827B85F39F0B93FCCF386957795679597
:10208000B395D9F73EF490958095709561957F4F03
:102090008F4F9F4F0895E89409C097FB3EF49095A9
:1020A0008095709561957F4F8F4F9F4F9923A9F031
:1020B000F92F96E9BB279395F695879577956795C0
:1020C000B795F111F8CFFAF4BB0F11F460FF1BC004
:1020D0006F5F7F4F8F4F9F4F16C0882311F096E997
:1020E00011C0772321F09EE8872F762F05C0662345
:1020F00071F096E8862F70E060E02AF09A95660FFE
:10210000771F881FDAF7880F9695879597F90895B6
:10211000990F0008550FAA0BE0E8FEEF16161706F8
:10212000E807F907C0F012161306E407F50798F060
:10213000621B730B840B950B39F40A2661F0232B79
:10214000242B252B21F408950A2609F4A140A695F5
:102150008FEF811D811D089597F99F6780E870E0DA
:1021600060E008959FEF80EC089500240A9416160D
:10217000170618060906089500240A941216130675
:10218000140605060895092E0394000C11F4882303
:1021900052F0BB0F40F4BF2B11F460FF04C06F5F1F
:1021A0007F4F8F4F9F4F089557FD9058440F551FF5
:1021B00059F05F3F71F04795880F97FB991F61F0C9
:1021C0009F3F79F087950895121613061406551F40
:1021D000F2CF4695F1DF08C0161617061806991FAC
:1021E000F1CF86957105610508940895E894BB27A1
:1021F00066277727CB0197F908950E94881008F485
:102200008FEF08950E9415110C94C3100E94B51011
:1022100038F00E94BC1020F0952311F00C94AC1003
:102220000C94B21011240C94F7100E94D41070F387
:10223000959FC1F3950F50E0551F629FF001729F6B
:10224000BB27F00DB11D639FAA27F00DB11DAA1F7A
:10225000649F6627B00DA11D661F829F2227B00DC7
:10226000A11D621F739FB00DA11D621F839FA00D52
:10227000611D221F749F3327A00D611D231F849FA2
:10228000600D211D822F762F6A2F11249F575040F9
:102290009AF0F1F088234AF0EE0FFF1FBB1F661F74
:1022A000771F881F91505040A9F79E3F510580F03D
:1022B0000C94AC100C94F7105F3FE4F3983ED4F309
:1022C000869577956795B795F795E7959F5FC1F7E1
:1022D000FE2B880F911D9695879597F908950E947A
:1022E0008810880B990B0895EE0FFF1F0590F4914D
:0822F000E02D0994F894FFCFE2
:1022F800FFFFFFFF00E1000000000000000080BFBA
:10230800000080BF00C18081000000000000005470
:1023180003CF0275036A03BB037903970300000028
:102328000082055505D0052B054E053B052C056E8D
:10233800616E00696E66006F766600496E69746941
:10234800616C697A696E67204932432064657669F1
:0C2358006365732E2E2E000D0A0020007D
:00000001FF
